:030000000209549E
:0C095400787FE4F6D8FD75810A02085493
:100942004C59434120534F4654004B455044414477
:020952003A0069
:06088800D2937F057E0003
:10088E00E4FDFCC3ED9FEE6480F8EC648098501597
:10089E00E4FBFA0BBB00010AEB64734A70F50DBD65
:0508AE0000010C80DEDA
:0108B3002222
:1008D900A907E954F0F590C292120888C293E9C4B5
:0E08E90054F0F590C292D29312088EC2932260
:1008F700A907E954F0F590D292120888C293E9C487
:0E09070054F0F590D292D29312088EC2932231
:1008B4008B088A09890AAB08AA09A90A12091560D2
:1008C40013050AE50A7002050914F9120915FF1245
:0508D40008F780E2229C
:10092E007F021208D97F281208D97F061208D97FB4
:04093E000C0208D9C6
:1008000075B0FE20B4037F332220B5037F3622204B
:10081000B6037F392220B7037F232275B0FD20B4B1
:10082000037F322220B5037F352220B6037F382292
:1008300020B7037F302275B0FB20B4037F31222024
:10084000B5037F342220B6037F372220B7037F2AE7
:04085000227F6E2273
:0A0960007F6EBF6E0512080080F8DC
:01096A00226A
:1008540012092E7F801208D97BFF7A097942120887
:10086400B47FC01208D97BFF7A09794C1208B47F8F
:10087400C71208D9120960EF3395E08F82F583120D
:0408840008F780EB06
:10091500BB010689828A83E0225002E722BBFE02E0
:09092500E32289828A83E4932213
:00000001FF
